:20000000A03A0120B50C010039FB021039FB021039FB021039FB021039FB021039FB02107F
:1C00200039FB021039FB021039FB021039FB021039FB021039FB021011FB021002
:20003C00783D0020703900200C3D0020183A002000000000543B0020803D0020543C0020EF
:20005C001C3D00204C3A0020B0180000101C0000A81C00002C1C00001E1C00002C3D0020A2
:20007C00E0290020E4290020E8290020EC290020F0290020F4290020F8290020FC290020AC
:20009C00002A00203C3D0020AC390020E43C0020783A00207214000004140000E0140000B8
:2000BC004E150000BC150000FC1A0000541C0000481C0000BF3D0020643D0020E42B0020FA
:2000DC00703C0020102B0020B73D0020B83D0020CC3A0020F83C002098260020042A00200E
:2000FC0004130000911000004417000070240020F01B000010370020B03D0020AC3D002095
:20011C00082A00200C2A0020A43D002070180000A43C00208C380020303900209816000077
:20013C00282C00208C3D0020A03D0020CC1C0000341D0000AC29002094340020F82C0020EF
:20015C00014A031049480310D549031015470310F1C200005D49031081470310A1460310A0
:20017C009548031045450310254A031021440310ED47031099490310E148031021490310E7
:20019C005553031089520310CD520310655003108D4E0310D14F03103D4F0310D5F7000014
:2001BC000000000059510310ED500310A1BC0000CD4B03102952031011530310A955031078
:2001DC007555031069530310DD55031035550310B554031021540310855C03100D56031067
:2001FC004D5D0310A9640310B55B03106D570310E5610310095E0310C55803108560031011
:20021C0071610310B16203109963031055630310FD600310B15E03105DBA0000D55A0310F2
:20023C00D559031009630310D963031019640310555F0310C56403104D6203107164031056
:20025C008D64031055640310E16403102975031079720310A16B0310F57203109D740310EE
:20027C00797403102D74031061730310FD7303105574031015750310D96C0310FD740310EF
:20029C00616A0310E17403103D75031079700310F9640310CD6803102D710310C17403108A
:2002BC00F56E0310B973031029670310056E0310C56F0310E1710310A1770310797D031064
:2002DC003D7E031049750310157E0310357D031099760310997C0310257B031071780310FF
:2002FC00B57D0310ED7C0310857E03102D790310B97A0310917B0310B1790310ED7B031035
:20031C00E97D0310617E0310357A0310D57E0310457C0310A57E0310BD7E0310058003103E
:20033C00D9800310E97E031049830310898403108D8103107D820310E58403102B8403104B
:20035C00C5830310918703106188031045880310F1850310B18803107D880310C9880310CE
:20037C001D870310A186031001850310E188031099880310F98703107D960310359C03108A
:20039C00819D0310E99A0310359B0310C19B0310419A0310F18803101D8C0310618F0310EF
:2003BC00F1940310919E0310C19E03103D9E0310699E0310259E0310619D03100D9E031028
:2003DC00819B0310ED93031055990310C9970310D9980310BD950310959C0310C19D03102D
:2003FC00A59E03107D9E0310C991031029970310699C0310DD9D031095900310FD9B031095
:20041C00CD990310158E0310019D0310E19C0310219D0310419D0310BD9C0310F59D03107D
:20043C00A19D031055980310E1920310999A0310B99E0310559E03101D310100B14A0100C8
:20045C0039A203106B46010069A1031075A20310C59E0310B9A10310F9A1031015A1031040
:20047C009DA2031081540100DBB4000015BE0000DD270100B5530100D943000031A90310BF
:20049C00ADA203102D970000B9A8031099A5031095A8000039A803106DA9031089A60310B9
:2004BC006DAC031099B1031009AF031059B1031001B103109DA9031019E0000005D50000BE
:2004DC00F31E0100BDCA000011630000B50F010035C80000F16A0000B9A400002DAD00009F
:2004FC0089B10000F1B9031075BA031081BB0310492D0100C9E400002D05010079B60000D2
:20051C00BD2901009D0001005D36010001010100112D01006140010085490100CD04010021
:20053C001D1E01002132010071150100E1D00000454D0100812D0100C11F01005D4D010009
:20055C00F1750500AD6400006D61000069780000E9C6031031550000B57E0500814F010003
:20057C00092F0100974A01000D07010013560100CB4A01006D4F0100B9560100390901009F
:20059C00D1DB00009DD9000001000000000000000000000000000000FFFFFFFFB82C00201C
:2005BC000400000000000000000000001400000030FD021018000000041D00006406000025
:2005DC00902C00200400000000000000000000002400000018FD0210180000007D4E0100F0
:2005FC00080000005407000018060000C1C8021001BB021091EB0210DDE5021081E0021020
:20061C00B9E5021071E50210310000000100000001000000681D000000000000FFFFFFFFF2
:20063C00B02C002004000000000000000000000028000000B8FC0210240000001E0000006E
:20065C001800000000000000CC080000780600009BEC021025E2021005EB021025DE02104B
:20067C00FDE10210E1E402102F000000340000002400280000000000B42B0020FFFFFFFFED
:20069C00D82C0020040000000000000000000000380000006CFC021028000000010000003B
:2006BC00100000000000000000000000F7F1021000001A0010000000030000009C1C00002F
:2006DC008F1B00000800000036000000582B0020402A002009001D002B020100402900200C
:2006FC000100000000001200FFFFFFFFC82C002004000000000000000000000010000000A7
:20071C0048FD0210180000000000000000001300FFFFFFFFE02C002004000000000000000F
:20073C000000000054000000A0FB02103C000000000001002D000000A8050000FBF6000094
:20075C0030000000DD550100540700007C07000059D20210D9DB021059EC0210CDD602102D
:20077C0085DE02104DE5021029E5021030000000000016000000000000000000FF7F0000C0
:20079C00AC270020FFFFFFFFC02C002004000000000000000000000058000000DCFB0210FD
:2007BC003400000039FB021001002F00060000000000000020000000010000001BF8021027
:2007DC0028000000CC080000F407000093EC02106DEB02104DEC021029E00210BDE40210F2
:2007FC0099E402102D00000000000000982C00200400000000000000000000001000000029
:20081C0040FC02102C000000000000000000030000000F003C0000000000000000000000F4
:20083C002FF902101000000008000000681B0000FFFFFFFFD02C00200400000000000000AB
:20085C00000000001C000000DCFC021024000000E0070000802C002004000000000000009B
:20087C00000000000C00000000FD0210180000006B070100000000000000000008000000AE
:20089C000100000004000000000000000000140000000000E01700000000190000001800FB
:2008BC0024000000E15601000040000000020000A80500000000100055F002100C0000005E
:2008DC00B59F000000000000782C00200400000000000000000000002000000010FC0210A2
:2008FC0030000000F817000001000000C95501008BF60000000000000000170000020000E3
:20091C003100000000002300000015000100000064070000A82C00200400000000000000EE
:20093C00000000002000000094FC02102400000010180000542C002020000000881900002C
:20095C0000000000000000000000000000000000000000000000000000000000000000007B
:20097C00000000000000000000000000000000000000000000000000090803100101031022
:20099C00890903105D0303100105031089060310D1080310210A0310810B0310810A031001
:2009BC00110B0310510B0310D10A031029100310610D0310890E0310050E0310B50F03101B
:2009DC00D10B0310511003103D10031065100310FD0E0310ED0F0310B50C0310650F031028
:2009FC00111003106910031009120310F5120310AD110310291103105D120310B11203105D
:200A1C0019250310552703108D240310F12603100528031089260310CD2303105928031053
:200A3C00ED1F0310251303100D210310911D0310B12703100D2203109925031019260310DE
:200A5C00A91B0310CF2803109528031039290310052903106D29031099160310C91E0310AE
:200A7C007D1903100D230310C92C03101D2C0310292D0310B52B0310F52C03109D290310A1
:200A9C00CD2A0310452B0310472D0310112D0310412D0310752C031029340310C138031024
:200ABC0071360310A12E0310813303106D380310A93A03103D3A0310C53403101138031017
:200ADC00753A03104D2D031009320310E12F031015390310F939031019310310B13703103C
:200AFC00F5350310B13903105D350310C5320310E5360310693903104D370310253D031002
:200B1C00413D0310F53C0310C93A0310A53C03109D3D0310593D031019430310CD3D0310B8
:200B3C00A14303104D400310093F031061420310CD400310C9430310E5430310C93F03105C
:200B5C0011440310FD4303101F440310A942031019420310E1420310C141031075430310C6
:200B7C0049430310494103101B440310AD0B0310515601005556010061560100DD540100A2
:200B9C00655601005D560100595601006D56010069560100943D00203C2020202020204365
:200BBC004F4E4649475552452020202020203E003C2020202020205345542050414E494448
:200BDC002020202020203E003C20202020534554204348414E204D41534B202020203E000F
:200BFC003C2020202020534554204E574B204B455920202020203E003C20202020202042DC
:200C1C0041434B2020202020203E00C03C2020204E4554574F524B20414354494F4E532014
:200C3C0020203E003C20202020202020464F524D204E574B2020202020203E003C20202020
:200C5C00202020204F50454E204E574B2020202020203E003C20202020202020434C4F536B
:200C7C0045204E574B20202020203E003C2020202020202020204150502020202020202008
:200C9C0020203E003C202020202053454C4543542053454E534F522020203E003C20534592
:200CBC0054205245504F525420494E54455256414C203E003C202020202053454E4420546B
:200CDC004F47474C4520202020203E003C2053454E44204449534153534F43494154494F37
:200CFC004E203E003C202053454E442054595045205245515545535420203E002054492080
:200D1C00436F6C6C6563746F722000C03C20202020202048454C502020202020203E00C04D
:200D3C006D400021D740002199400021F94000210541002111410021294100214141002135
:200D5C00074C657900F009F861796940490703D50121044A8903116070BD70B50249084751
:200D7C0080030021081104402D59000000F019F8E1B26C290BD0042801D0062807D10E4972
:200D9C000978C90703D12178090700D402200B490A780C21114202D0094980220A6003B03A
:200DBC00F0BDF0B583B0074908470448017840229143017004480047C800002133010021B6
:200DDC0000E200E041160300231B030000F034F800480047577F000000F034F8004800476E
:200DFC001B880000094B1A780824A243002800D022431A70004A1047838E000003490878D8
:200E1C00000701D40248004770470000800300215F7E0000044A2820904704480121416095
:200E3C000348044A416010474F420000005004400060044085420000806B0C490007000F1F
:200E5C0048717047094A0A4918235079CB56497EC018814201DD084602E00F2800DD0F2088
:200E7C00D189090909010143D1817047E00200218800002100202020202020202020282877
:200E9C00282828202020202020202020202020202020202020881010101010101010101056
:200EBC00101010101044444444444444444444101010101010104141414141410101010124
:200EDC000101010101010101010101010101010110101010101042424242424202020202F2
:200EFC00020202020202020202020202020202021010101020000000000000000000000056
:200F1C000000000000000000000000000000000000000000000000000000000000000000B5
:200F3C00000000000000000000000000000000000000000000000000000000000000000095
:200F5C00000000000000000000000000000000000000000000000000000000000000000075
:200F7C000000000000000000000000000000000000000000000097B92EE5725CCB5DCAE44E
:200F9C0073B82F0196BA2D03945FC8E671E7705EC90295BB2CE3745ACD0691BF28BE290762
:200FBC00905BCCE27559CEE077BC2B05920493BD2AE17658CF51C6E87FB4230D9A0C9BB5B7
:200FDC0022E97E50C7EB7C52C50E99B720B6210F9853C4EA7DB2250B9C57C0EE79EF7856A4
:200FFC00C10A9DB324089FB126ED7A54C355C2EC7BB027099EA2351B8C47D0FE69FF6846F5
:20101C00D11A8DA334188FA136FD6A44D345D2FC6BA037198E41D6F86FA4331D8A1C8BA525
:20103C0032F96E40D7FB6C42D51E89A730A6311F8843D4FA6DF3644ADD1681AF38AE3917F2
:20105C00804BDCF26549DEF067AC3B15821483AD3AF16648DF1087A93EF5624CDB4DDAF467
:20107C0063A83F1186AA3D13844FD8F661F7604ED91285AB3C000136360101000102010008
:20109C00010301000104010606080400000C0100340D01000F10040101140100FF1608006B
:2010BC000020020000220100FF23010001240100FE250100082602000028010001290100DE
:2010DC00012A0200002C01000F2E0200003001000131010008320200FF3401000735010248
:2010FC00FF360100003701000138010001390100FF3A01000F3C0200FF3E01010F3F0100DC
:20111C00014001041F41010001420100FF43010080440800004E0100084F01000F500100B2
:20113C0001510100FF5201000A5301008954010001580400005C0400006004000064040029
:20115C0000680400006C0400007004000074040000780400007C040000800100FF810100AD
:20117C00018201000183010102840100010203FFF62C0020C13D0020C23D0020F52C0020FD
:20119C00B93D0020F72C0020F42C00208D540100D93E00009D4C0100D13A0100CD350100A8
:2011BC00091001000D0D010045E4000021150100C13D01009D350100D11401005F55010011
:2011DC00954F0100F142010051310100F53F0100793A0100A53A010085310100FD350100A4
:2011FC0045C60000E5C00000033C0100811401006D0401006954010075540100A1E00000D2
:20121C001549010047D30000A9CF0000D51D010045D00000ED31010099540100B1440100B6
:20123C00FD4C010000000000F9290100916F000071440100E9DC0000A924010003080000D1
:20125C000000000000000000000164030000000000000000053800000000000000000000CD
:20127C0000000000000000000000000000000000033800000000000000000000820108107C
:20129C0014000084000000004E905500000000000738000000000000000000000001210303
:2012BC000F008000520798E00800C810982B002064030080050000000438000000000000C7
:2012DC0000000000000188F94E90550000000000FF0710580000FC010000000000000000D2
:2012FC000000000000000000360001000600000000000000000F0000000000000000000086
:20131C000000000000000300FFFF00000403FFFF0000FFFF0F00E8030005401F031000013B
:20133C0001000000FF3F0F0008000E0000000000000000000300010F000009010000000010
:20135C00000000000000000000000000000000000000000000000000000000000000000071
:20137C000000000000000000AD000001000000000001040000333333333333333300000006
:20139C00000000000000000000000000010000000000000002000000000000000333333392
:2013BC0033333333330301000000000000000000000000000000FFFFFFFFFFFFFFFFFFFF18
:2013DC00FFFFFFFFFFFFFF46485465737400000000000000000000000000000000000000CA
:2013FC0000000000000000000101710101010101110101013101010101018001000110017C
:20141C0061013B001400630173017201620143010001130106013D01350004011201000165
:20143C0000010001000104010401330133013C014401320136000001000165010001350092
:20145C0081010001050182018301000166010001000108010901030071003001600011004D
:20147C0070003102200350048000070010006100000014006300730072006200430000003D
:20149C00130006000000000004001200000000000000000004000400370037003C02440009
:2014BC00000000000000000065000000350081000000050000008300000066000000000007
:2014DC000800090003027102300160021102700201020202020280020002100261023A0011
:2014FC00410063027302720262024302000213023800000200020402120200020002000225
:20151C00000204020402370037003C0244020002390000020002650200023502810200024B
:20153C00050282028302000266020002000208020902010371030103010301030103010370
:20155C0022030203010300031003000300030003000300030003000342030003240306039E
:20157C0000030003040312032503230325032303040304030003000300034403000300032D
:20159C00230300036503210035038103000305030003000300030003250323030803090345
:2015BC00030471040204600411047004020402040104020400041004610400041404630489
:2015DC007304720462044304000413040604000400040404120400040004000400045104A5
:2015FC0064000004000400044404000400040004000465040004350481046400050400046B
:20161C0083040004660400040004080409040104634A0100954E01002DDA00008130010048
:20163C00314301007DD100003DEC00000B42010051430100DB37010009380100252701001D
:20165C00593301004D4B01006D0701005D16010045FE0000C9070100DBFD0210854001009B
:20167C0011DC0210B9DA0000FD530100293B0100AD500100C1500100BD49010000000200ED
:20169C000000020002000200000032000400010000000200000000000000000005000100E9
:2016BC0000000700060001000000030007000800000000000F0001000100FF0010000800C6
:2016DC0000000000180008000000000022000200000000008F0000008F0001008F000200FA
:2016FC008F000300900000018F00010190000002900000038F0001048F0000058F00080432
:20171C008F0000048A000006510000007F0001003F0004003F0002003F0001007F00020074
:20173C008F0002048F00010238C40D00C80000008100000032000F0100C50D00900100006F
:20175C004000000096000501952B0D00C80000002200000032000F02000000000000000097
:20177C0000000000000000000000000000000000000000000000000000000000000000004D
:20179C0000000000000000000000000000000000000000000000000000000000000000002D
:2017BC0000000000000000000000000000000000000000000000000000000000000000000D
:2017DC00000000007B7374617469632D696E7374616E63652D6E616D657D00C07B656D70A0
:2017FC0074792D696E7374616E63652D6E616D657D00C0467B756E6B6E6F776E2D696E730B
:20181C0074616E63652D6E616D657D00F10901001FF9021045F8021059F802106DF8021008
:20183C0081F8021095F802104DE80000ED36010029260100E12F010039410100FD500100DF
:20185C00F1450100992E010083530100654E01008DF60000C003000080070000000F000006
:20187C00001E0000003C00000078000000F0000000E0010000C003000080070000000F0050
:20189C0000001E0000003C00000078000000F0000000F00000000000020000000200000076
:2018BC000A00000002000000020001000000000000000000000000000000000000000000FD
:2018DC0000000000000000000E00000081550100E95501007D340100E14701000D0F0100D0
:2018FC00FD470100CDE5000049200100E5530100698A0000C1E300000DFF000099550100A0
:20191C00057700002D89000001560100F5160100F5AE000007560100E9D7000054070000F9
:20193C0050190000A5520100B5520100D5520100C55201007D37010081410100813B0100AD
:20195C003200000000B000401400000034000000FF000000000000000D0CFFFF343B00205C
:20197C0020000000010300000000000015F9021001E602102DDA021045E7021041D1021093
:20199C00C9D30210A5DF02102DE4021061EA02106926010000000000FFFFFFFFFFFFFFFFDF
:2019BC0000000000000000000101010100C201000300000000000000CC080000E81900006C
:2019DC00CD5601005DDC000049F100001D3701005D410100553B01002E000000FFFFFFFFA5
:2019FC000000000000000000000000003A013A010000000000000000000000000000000055
:201A1C0000000000000000000000000000000000000000000000000000000000D4190000BD
:201A3C00882C002004000000000000000000000020000000141B00001800000038190000FA
:201A5C00A02C002004000000000000000000000014000000B01A00001C0000001404C0A008
:201A7C00FE0000001404C0A00A0480A0090480A008400080FE0000000D0480800C400080D6
:201A9C0006048080070480800F2000800E200080FE0000001C00000000000000000000009E
:201ABC00C41A00000000000008000000000000000100000040420F00010000000000000091
:201ADC00000000000000000000000000000005800000068000000780000000000000000058
:201AFC0000000500BD00B700B100BC001C0030003800080038010200180000000000000005
:201B1C0000000000241B00000800000000000000182C0020082C00200400000004000000A2
:201B3C00FFFFFFFF00000000C9BE00007D4A01000101010000000000000000000600000035
:201B5C0002000000860000008200000001000000000000000000000000000100000001005C
:201B7C00001610160E18151C0212032418580302100258000200000000000000FFFFFFFF9E
:201B9C0000000000E038002089110000083900208A11000005000000D0070000C8000000B7
:201BBC00FF00000014380020381D0000503800203A1D00000200000000000000FFFFFFFF4C
:201BDC00000000000000000020000000400000006000000088B22400881300001000000020
:201BFC00000000010000808000008084002080840040808400A6AAACA4A9A9A399B19ABC27
:201C1C00B6A8313118191A22311C1E2031313431313117191A21241B1D1F3131333100001B
:201C3C000000000000000000000100000C0E020B040B0A070800110F000120181A18182C69
:201C5C0034041E00E8180000A83D0020F41C0000FF000100000000000000000010190000D4
:201C7C006833002060190000000000800020008000400080000000800004008000080080A8
:201C9C0025DD021031C8021075DF021002040201010101090200000000BE040A00BE0208F8
:201CBC000102000302000103FFFFFFFFFFFFFFFF00040810000408108C3C00208B11000048
:201CDC00E803000000006400FF00000000000000650D01008956010000E0040000800000E3
:201CFC000000000008000000000000000000000010040810181C10000810182004040810E0
:201D1C00181C0000010203040101010102024E42434E000003030000000105090001010128
:201D3C000000000010000000010000001F560100D15601002FF200002556010025180100FD
:101D5C00B9EB0000C95601000A000000654B0100F8
:201D6C0031530000859C0000000000000000000000000000954B010021500100EDEF000083
:201D8C00E54F0100FB550100F555010035500100000000008955010069F700007DF900002B
:201DAC00A5480100DDD300005F510100ADB500002D51000081DE0000314401000000000013
:201DCC00550B01007D4B010091C70000314F0100A551010091530100955101006955010072
:201DEC00D7550100D155010000000000000000000000000000000000000000000000000083
:201E0C00000000002F5301002F5301000000000000000000000000000000000000000000B0
:0C1E2C00000000000000000000000000AA
:201E38002DE9F04FD34E3061D3493163D4A10978ADF1640D002508A840220170D1A108A804
:201E58008DF8605011F048FA0320CC4C8DF86000207801283ED1A0684FF0FF3154F020FF28
:201E7800D4F83480B8F1010F34D808A813F05CFD2F46401C05D008AA12F8011B401E0F44CA
:201E9800FAD104EB88009DF860304764D3B1E278C2B11901C36400F15C0901EB43118A4620
:201EB800084611F0D3FC49460028C9F8000004BF4FF0010AC6F838A00FD008682A4651467B
:201ED8000CF0B0FE08F101006063A06813F028FDB76300E0B5634FF0010ADFF820930095D8
:201EF8006846CDF8049010F0B7FDAB46CDF808A002A8CDF80CB010F0AFFDC148C068007831
:201F180011F0C6FE002859D1306B002856D0C268002A53D04FF007088DF81080ADF812A078
:201F380004A8ADF8145003C890470220376B8DF8108004ABADF81200FA68ADF8145093E80D
:201F5800030090472F468DF810800320ADF81200306BC268ADF8147004AB93E80300904739
:201F78007F1C642FF4DB376B8DF81080042004ABADF81200FA68ADF8145093E8030090474B
:201F98002F468DF810800520ADF81200306BC268ADF8147004AB93E8030090477F1C642FA3
:201FB800F4DB376B8DF81080062004ABADF81200FA68ADF8145093E803009047B76B11F014
:201FD8008FFF40B9E068C06804F10C01B84204BF0868C0F81490CDF818A006A811F04EFCF1
:201FF800079507A811F04AFC2846032110F050FDB06B814612F07AFD002840F0A480DFF8AA
:202018000482D8F80000002800F09D80E06A4FF0FF3154F045FE04F1D4034FF0FF32AE46AD
:2020380059461846476837B9076827B9B2F1FF3F08BF0A1C01E00EF1010E491C0830042916
:20205800F0DBE06AB2F1FF3F7BD0D100C818BEF1000FC0F804904046585068DD226A6A49BA
:20207800DFF8A891BEF1010F0FF2281826D1C1F810B08A6113680B600D75D16097684D7583
:20209800BB0003EBC7039B181D72276ABB689A0002EBC302D2195572236A9F682162BA00F0
:2020B80002EBC7024746D21857609F68E161BA0002EBC7024F46D218D7600A468C46C0F8DB
:2020D8000CC087684FEA8E01BB0001EBCE0103EBC7031B181D726144C1F810B088610D75EC
:2020F80087684D75BB0003EBC7031B185D72876881F820A0BB0003EBC7031B1847465F6088
:20211800876881F82150BB0003EBC7031B184F46DF6025A73E4BCF61BEF1010F4B626146BC
:2021380003D08868401C886004E00320FBE720624246E0619068401E6062284605F03AFC9B
:20215800E06A13F0EDFB06F13C011CA008F0ACF806F140011BA008F0A7F806F144011DA023
:2021780008F0A2F8B06BF16B21A206F097FA19B0BDE8F08FDC1C0020181300202001002063
:2021980000C046C031353420436F6C6C6563746F7200C0463C2020202020204241434B20CD
:2021B80020202020203E00C03C20202020202048454C502020202020203E00C053746174EA
:2021D800757300C04465766963652053746174757300C0464E756D626572206F66204A6F0E
:2021F800696E6564204465766963657300C046C057616974696E672E2E2E00C051450100CA
:20221800A01B0000002900205C270020454F010055990000EB482DE9F04F3CC8ADF1240D21
:2022380069463CC11DC881E81D00E74CE74D009404F11006019605F15407029705F13400BE
:2022580003958046049005F17C008246059005F1180006900EF0FAFD8146DD4800213022AD
:202278008460DC4CC66004F1FC0006460CF0DAFCB9F10E0F0CBF30222822304639460AF0E8
:2022980071FF04F584710878D34B0127C7F3000262F3C710087094F812010026B14669F38A
:2022B800861084F8120194F812011822294667F3C71084F8120194F81301A4F81E3140F01E
:2022D800E00084F8130104F134000AF04BFF94F8400004F1DC052022414667F3C71084F8F1
:2022F800400028460AF03EFF94F8E800C84668F3030084F8E80094F8E80067F3C71084F87C
:20231800E80094F8EA0067F3C30084F8EA00102684F8EB60A4F8EC9094F8EF0020F00F0015
:2023380040F0040084F8EF0094F8EF003022514667F3C71084F8EF0004F596700AF012FFDC
:2023580094F8380167F3C71084F8380194F83A0168F3000084F83A01A04B94F83A01A14945
:2023780068F3410084F83A0194F83A0168F3820084F83A0194F83A0167F3C30084F83A01FC
:2023980094F83A0168F3041084F83A0194F83A0168F3451084F83A0194F83A0168F3861052
:2023B80084F83A0194F83A0167F3C71084F83A0194F83B0168F3000084F83B0194F83B01FC
:2023D80067F3410084F83B0194F83B0167F3C30084F83B0194F83B0168F3041084F83B0106
:2023F80094F83B0167F3451084F83B0194F83B0167F3861084F83B0194F83B0168F3C7102C
:2024180084F83B011868D0F80001C089A4F8440194F8460166F3050084F84601B4F8460192
:2024380069F38A10A4F8460194F847016FF0030220F0F80040F0580084F84701684B84F8F0
:202458004A2194F84B01042666F3030084F84B0194F84B0168F3041084F84B0194F84B01EC
:2024780068F3461084F84B0194F84B0168F3C71084F84B015C481C22C4F84C310AF072FE74
:20249800A56694F87000574920F00F0040F0030084F8700094F8700067F3C71084F8700026
:2024B80094F87100032565F3030084F8710094F8740067F3000084F8740094F8740068F3F2
:2024D800410084F8740094F8740067F3C30084F8740094F8740067F3041084F874004FF405
:2024F800207AA4F878A06FF0520984F8759094F87A0065F3030084F87A0094F87A0068F383
:20251800071084F87A0094F87B004FF4FA5B1C2266F3030084F87B0004F18000C4F87CB009
:202538000AF020FE3048C4F8840094F88C0020F00F0040F0020084F88C0094F88C0067F3D0
:20255800C71084F88C0094F88D0065F3030084F88D0094F8900067F3000084F8900094F8F9
:20257800900068F3410084F8900094F8900067F3C30084F8900094F8900067F3041084F8C0
:202598009000A4F894A084F8919094F8960065F3030084F8960094F8960068F3071084F887
:2025B800960094F8970066F3030084F897000848C4F898B00799016108F038FB09B0BDE8FC
:2025D800F08FC046181E0000242600205812000040280020881E00200080FFFF1401002053
:2025F80000C4226470120000EC1E0020CA482DE9FE4F0C460068DFF8E4B20292B830C1698B
:20261800B74F91F88320B4499946012A7AD0C24AB04852680068D2684FF0E0450123002413
:20263800022615EA09051370029B0C7006EA030608BF002E35D11A464FF4803114EA09035F
:2026580001EA020108BF00291BD113464FF400312246194012EA090308BF00290DD1029B97
:202678004FF4800112EA090201EA030108BF00290AD004710DF012FA06E004710FF028FFBF
:2026980002E0047153F0B0FC02992346202013EA090300EA010008BF002817D012F058F97B
:2026B80014E05A4692F90010002903DD92F90010491E117097F90010002904DD3A4692F992
:2026D8000010491E117004710DF0E8F997F9000068B1002D08BF002E12D097F90000002832
:2026F8000EDC8D480068D0F84C05804708E0A648894F04703868D0F8582421460846904729
:20271800009439E1844A0026012352680096DFF87CA2D2689F4D1370029B0E70002220266A
:2027380002EA030116EA090608BF002973D118464FF0E046104016EA090608BF002840D12C
:202758004FF48601BAF82E01DFF84CC2CDF804A012EA090601EA030108BF002918D18C49C0
:2027780012EA090601EA030108BF00296CD005F12801EC8098462881B9F1000F81E80003E4
:2027980004BF4146B1F1806F5ED102285CD110E005F12801EC8098462881B9F1000F81E89C
:2027B800000304BF4146B1F5803F4DD1B0F5505F4AD12846C06866464369306821469847F6
:2027D80040E05E4696F90000401E30702E46B6F90600844217D1328906F1280003C80029EB
:2027F80004BFB0F5803FB2F5505F08D0002904BFB0F1806F022A02D00DF050F903E00FF0CA
:2028180067FE12F057FA97F90000401E38706FF00101F18014E06FF00101AA1D006811806B
:2028380006786EB15D480078832802D05C49812008702E46716919B1002088472146E8E74E
:20285800CDF804A0BAF82E0102994FF0000A4FF002085E461AEA090308EA010108BF002951
:2028780065D043F2014181423CD0C91C814239D0B5F9063096F900109C42A1F1010131707E
:2028980004D043F60401814237D134E005F1280003C854464FF4820214EA010302EA0002F5
:2028B80008BF002A12D105F1280090E800184FF4003314EA0C0403EA0B0008BF002802D140
:2028D8000DF0ECF819E00FF003FE16E053F08CFB13E0C046B43A00203C2C0020452C002026
:2028F800442C0020687896F90040401C6870601E30700DF0D3F811F083FB01985146064B67
:20291800A0F82E1118686FF00104D0F8B800EC80007830B102E0C0461401002021480078A1
:2029380008B912F0C7F997F90000401E387096F9000010B914485146017097F90000A0B1C9
:20295800029A4FF0E040414610EA090001EA020108BF002910D097F9000000280CDC124822
:202978000068D0F84C05804706E00F480068D0F858245046014690470B484068009FC16897
:202998000F70BDE8FE8FC0463A2C0020881E002000000C8CC823002054280020C03D0020C0
:2029B800BB3D0020BD3D002014010020B0B50446BE480768ADF1480D002F00F0B081607859
:2029D800192800F0AC812078401E122800F2A781DFE810F06E0157013D0128012001090117
:2029F800F600E800C800B700920067005D004C00A501340026001C0013007B6C002B00F08F
:202A18008E810020A21C0146984788E1F86B002800F08581684621460BF088F8F96B7CE150
:202A3800386C002800F07B816846002101220CF0F9F860788DF80000396C6EE1F86A00280C
:202A580000F06D81684600210E220CF0EBF8A11C684612F0F3F8A57BA1890022ADF80A101F
:202A780005B101228DF80C20F96A57E1B86B002800F055816846002102220CF0D3F8A57831
:202A98008DF8015060788DF80000B96B45E1786B002800F04481684621460BF047F8796BAE
:202AB8003BE1386B08B36846002114220CF0BAF8A5788DF80150A3680193A289ADF8082047
:202AD800A17B8DF80A1060788DF80000E57B8DF80B50237C8DF80C3094F911208DF80D20B6
:202AF80061690491396B684688476068002800F0168111F021FC12E1B86A002800F00F81EC
:202B18006846002124220CF08DF86078A11C8DF800000DF1020012F091F804F10C0103A8B5
:202B380012F08CF8257EE08A04F119018DF818500B22ADF816000DF119000AF013FBB96AC4
:202B5800EBE0786A002800F0EA806846002102220CF068F8A5788DF8015060788DF800008F
:202B7800796ADAE0386A002800F0D9806846002112220CF057F8658862796078ADF80250A8
:202B980023798DF80520E11D8DF80000A5798DF804300B220DF107008DF806500AF0E2FA9A
:202BB800396ABAE0F869002800F0B9806846002101220CF037F860788DF80000F969ACE0A6
:202BD800B86910B120460EF091FAA07820B9A069002800F0A48003E0A069002800F09F80B3
:202BF80010F042FA9BE07869002800F098806846002113220CF016F86D46A01C0168406867
:202C180029600B22686004F10A0102A80AF0AAFA796982E03869002800F08180204609F079
:202C380007FC7CE0F868002879D0684600210E220BF0F8FF6078A11C8DF800000DF1020041
:202C580011F0FCFFA089ADF80C00F96865E0B868002864D06846002114220BF0E3FFA01CC6
:202C780001686D46296040686860A07A0B2204F10B018DF808000DF109000AF073FAB968C3
:202C98004BE0786800284AD06846002110220BF0C9FF60786588211D8DF800000B22ADF8B1
:202CB800025001A80AF05EFA796836E0842900203868A0B36846002119220BF0B3FFA01C85
:202CD80001686D46296040686860A07A410824BF01218DF80810810824BF01218DF8091096
:202CF800C10824BF01218DF80A10010924BF01218DF80B10C10924BF01218DF80C1030F010
:202D18007F001CBF01208DF80D000B220DF10E0004F10B010AF026FA39686846884712B05A
:202D3800B0BD70472DE9F04FCB4C60692589216AA689806DADF1240D2A46891908310AF0B9
:202D580011FA7619B0B26669B16D4919C34DB1652968D1F8D41091F88370216A0B18083347
:202D78001B780DF11E021370DFF8F882022F00F1010080B208D141180A7A66694346591CDE
:202D98000A70216A401C80B20A180832126802A9001D0A6080B2A081042102A811F02CFC35
:202DB8000290034612F06CF9F063184611F098FDA6F84000EA2010F0BFF9A9484FF0020B95
:202DD800022F80F800B00BD168684069007838B14146087810B94878FF2801D00420E070D0
:202DF8006769E078397C084338749DF91E0012F059FC87F8460007F17406BE6539899DF92A
:202E18001E007B6887F84800B7F85C004FF00008401AC01801467860B88987F84780820A1C
:202E380018D2020926D310F0070F07D000F00700032812BF081C7868401C17E07968C87834
:202E580000F00702401000F0380000EB42004018001D0BE02868D0F80813384688476769CC
:202E7800786E10B1B7F8680090B178687861B889000918D297F8600020B32868D0F80C1315
:202E9800384688476769F86CE0B1B7F85000C8B92868D0F8541204F11400884740466061AB
:202EB8000CF0FCFDD4E02868D0F8B41438468847787067697E78B86978651EB1F22010F057
:202ED8003BF967692E68D6F8B8100878002800F0B780BA89DFF890A1089202F00702022ACF
:202EF80068D16378002B65D17B78002B62D161698DF81F800DF11600283112F0D5F8616900
:202F180028314F6803A847600E8906810A680260574607F110022B681088401C1080D3F8BC
:202F3800B8006169436A486E0DF11F020421984704F1140938B92868006C006818B19DF8AC
:202F58001F1080F86810666996F83000022813D12868D9F80030D0F8D4705A4607F1200149
:202F780003F1280011F082F830B907F116010DF1160012F099F866693C480078862809D1B0
:202F9800BAF81200401CAAF81200B08900F010000EF082F82968B8310A68107830B1976C3C
:202FB80027B16069394688472968B831D1F89C11484648E02E4A1378002B3AD0089AC2F3D5
:202FD8000132022A35D1787800287FF469AF69689DF81E00896853460870E6786769988AFB
:202FF800002E07F1280207F11C0C00F1010098820CBF414608212E68D6F8B8000378FBB17F
:203018001C4B404618600091CDF804C0D6F8D400117AD6F87863C38C0D20B04710B910F007
:20303800BFF801E011F094FC2E68D6F8B8106769087828B1896C19B1384688472E68676988
:20305800D6F85812384688474046606111F09CFC09B0BDE8F08FC046A43A002014010020DD
:20307800BB3D0020C4230020EC2A0020C03D0020BD3D0020D02A00202DE9F04FD04F834655
:2030980007F10C000068416EADF13C0D03A88847BD4E3268106C04682CB9D2F84C05804748
:2030B8003268106C0468B9480121656877680170287800F020000B90F868037843B9D2F84A
:2030D80058240846002190473068006C04686568248911F0D1F9002702200D902B880E9723
:2030F800180955D330684030816F0F78002F4FD0016809684B6A4F6E996AB1F1FF3F35D06E
:20311800A7B34A1C9A620268126891620068006890F82B0007F801093068006C006890F884
:203138002A0007F801093068006C006890F8290007F801093068006C006890F8280038705A
:203158003768386C0268106A00940190401B201A80B20290506A916AD7F8C0C492F88C2074
:203178002B461530E047071C01D111E0DB273068D0F8B800416C19B9E42008F04DFF04E0AF
:203198000E98834A1070E4208847002F40F0F880214628460AF078FF3068D0F828240AA9D5
:2031B800642090473068D0F8B800007838B170680069007807F002FF012840F0DE80754FF7
:2031D8003368A01C1FFA80F8A7F80080D3F828240DF12901E92090479DF829000E9F01281D
:2031F80005D14446C4F3022040F0180005E0241DA4B2C4F3022040F0080005F8010DC4F3E7
:203218004011204605F8014D09F074FE0890624CA4F8DE709DF82800C4F8F85000280CBF45
:203238005E485F48B846CDF8188004F164056F80C4F83C0104F1DC0ACAF8180094F87100D6
:20325800A4F8827020F00F0040F0030084F8710012F004FADFF84C910C90BBF1010F21D08C
:20327800BBF1040F1ED0BBF1000F18D0BBF1050F12D0BBF1030F0CD13168D1F8D40090F8EB
:203298005300D1F83C148847C07B022818BF55460AE004F1DC0507E0DFF80C9104E004F110
:2032B800800501E004F164050B9800283CD004F59670C4F8E00094F8E90020F00F0040F0FC
:2032D800020084F8E9003168A4F82E71D1F8D40090F85300D1F818148847042809D03068C2
:2032F800D0F8B800007800280CBFCA2040F21A2009E03068D0F8B800007800280CBF40F2D7
:203318001E2040F25E702949294B214E202286270E9209780D9310FB01F03770800000F53A
:203338007A60C4F84C0108E094F8E900012161F3030084F8E900C4F8E08021480E99C06803
:203358001C4F066D0D988DE80300386803AA4B462946B0471849002808800BD4174991F93C
:203378000000174FDC34401C08700C983C6153F041FA05E00C9853F03DFA1A2008F04CFEAD
:203398000FB0BDE8F08FC046140100203B2C0020C03D0020741F0020881E00204E90555552
:2033B8000E7A5555DD33000065800000A02A00200200430054280020C82A0020442C002061
:2033D800C82300202DE9FE4FA84D924600902868DFF8A482DFF8A492A54A01914030D0F8B7
:2033F80094101E4691F88330A249012B78D06B68DB6801241C70036800241F6814700C7035
:2034180017B9D0F80C0580474FF0E24704EA0A00374008BF002846D1274608203E4000EA4A
:203438000A0008BF002837D0404690F900104E46491E0170B6F8BE1042F20140884202D05C
:20345800001D88420BD18E4800680199826C0098904720B1008842F6014181420AD1B6F83D
:203478004E00B0F5105F1CD1316E864801600FF0B3FC2AE0E12008F0CFFD98F9000028B130
:2034980098F90000002800F3EB80DAE02868D0F8582421462046DEE0404690F90010491E5E
:2034B80001701D200FE0404690F900102F68491E0170386C006840680078800902D210F040
:2034D80087FC02E0E92008F0A7FD98F90000002800F0BC8098F90000002800F3C180B0E068
:2034F8006B68DB6801241C70036800241F6814700C7017B9D0F80C0580476348DFF88CB1A8
:203518000288022314EA060703EA0A0008BF00282BD120464FF0E24700EA0A00374008BFF7
:20353800002813D14FF48600202700EA0A00374008BF002803D11D2008F06EFD6AE00199A5
:20355800009833465246FFF751F863E0404690F900105F46491E01703878862802D010F05C
:2035780037FC57E00FF01CFC54E0404690F90010491E017043F20840904208D0B9F8661039
:20359800831C934203D0884218BF8B4218D13C4800680199826C0098904778B1008843F6A8
:2035B800030181420AD007F075F898F9000000284CD098F90000002852DC42E0B9F86610E9
:2035D800B9F8DE2043F6040090422BD0884229D0B9F88210884225D0B2F5505F05D0100B0F
:2035F80016D31D2008F018FD12E02948254900685F4600F5C07008603878862802D00FF0E6
:20361800EBFB05E001990098334652460EF0D8F811F050FB98F90000C0B198F900000028AF
:203638001EDC0EE01B480078022816D0032814D007F030F898F9000040B198F90000002836
:203658000EDC2868D0F84C05804709E02868D0F8582420460146904702E0204608F0DCFC9F
:203678006868C0680470BDE8FE8FC046140100203C2C00203B2C0020442C0020881E0020F4
:20369800D4230020E42300200A1F0020C03D002028010021EE2A00202DE9F04FAE4D00207C
:2036B800687095F83F10EB7895F83D00ADF12C0D0918491E91FBF3F25A43891AC9B20691EF
:2036D800810001EBC0014919B1F84C004FF0805909F5EC76ADF8140095F83C1095F83C007A
:2036F8009E4F0790880000EBC1004019B0F84C80306895F83D4081683846884700F0030062
:203718000890D9F8D801426800213846904730688168384688470028F9D10021079F6878C8
:203738000991A74200F09F808B46D946BBF1010F00F08E80BDF81410172964DB002840F085
:203758009380BDF814006A46C01F81B2ADF81410204609F0E5FABDF80E70BDF81430F81D6B
:2037780007F1100186B2994246D89DF80A00962842D19DF80B0042083AD2800838D3BDF849
:2037980014009DF80920C01B1FFA80FABDF8140039462346C01B80B20FF04CFE10BB08EB0C
:2037B8000600B0F5005F17DCE868C8F188520AEB443A3346921B514602F5005211F091FE08
:2037D80009F1010908EB06001FFA80F8B8F5005F08BF4FF0010B0BE0BDF814004FF0010B26
:2037F800C01D2DE0BDF81400401EADF8140003E0BDF81400C01B23E0204605A90CF04AF80B
:2038180001281FD030E0EA78B9F1000F07D0544BBDF81470A10001EBC401C9188F830699BA
:20383800A14220D04E49641C94FBF2F05043241AE4B2A00000EBC4004018808B4FF00009B4
:20385800ADF8140007996878A1427FF46FAF0AE0B9F1000F07D0424ABDF81470A10001EBD7
:20387800C40189188F8320B1089811F057F910206FE04FF6F0704FF40051C8EA0040C8EA9A
:2038980001414FF01009E1FA40F087B21FFAA0F18A46D7B1202FACBF20263E1C07984946A8
:2038B8000AF1885233460EF0D9F86978BF1BBFB209EB06030AEB0602002F40EA01001FFA3A
:2038D80083F91FFA82FA6870E4D1089811F026F90798A0420FD1E978214F0819401E90FB36
:2038F800F1F24A43801AC4B2A00000EBC400C019808BADF814001A4EA5F84090BDF81400A6
:20391800079FA5F84400B90085F83E4001EBC7018919A1F81C80B5F9422095F83D100123BB
:2039380038460FF0EDFF95F83E10B5F94420022338460FF0E5FFBDF814001728BCBF0120EF
:203958000990B8F5005F03DB099840F00200099009980BB0BDE8F08FAC250020004003406C
:20397800DC2500202DE9F0410546EC6B00215022ADF1580D02A80BF055F914F8010B8DF8FF
:20399800080021680DF1090001606168083441602078617811F0FCFDA41CADF81200410845
:2039B8000FD32078617811F0F3FDA41CADF814002078617811F0ECFDADF81600BDF8120055
:2039D800A41C810808D32078617811F0E1FDADF81800BDF81200A41CC1080FD320786178FB
:2039F80011F0D6FDA41CADF81A002078617811F0CFFDADF81C00BDF81200A41C0109C0F01C
:203A1800AA802078617811F0C3FDA41CADF81E002078617811F0BCFDA71CADF8200038784C
:203A3800797811F0B5FDBE1CADF822003078717811F0AEFDB31CADF824001878597811F0F2
:203A5800A7FD9A1CADF826001078517811F0A0FD941CADF828002078617811F099FDA41CF5
:203A7800ADF82A006178207811F092FDA71CADF82C003878797811F08BFDBE1CADF82E00F3
:203A98003078717811F084FDB31CADF830001878597811F07DFD9A1CADF83200107851789D
:203AB80011F076FD971CADF834003878797811F06FFDBE1CADF836003078717811F068FD34
:203AD800B31CADF838001878597811F061FD9C1CADF83A002078617811F05AFDA41CADF89D
:203AF8003C006178207811F053FDA71CADF83E003878797811F04CFDBE1CADF840003078B8
:203B1800717811F045FDB31CADF842001878597811F03EFD9A1CADF844001078517811F01D
:203B380037FD971CADF846003878797811F030FDBE1CADF848003078717811F029FDB31C7E
:203B5800ADF84A001878597811F022FDADF84C00BDF812009C1C40090ED320786178A278B8
:203B7800E37811F0F4FB241D14906178A2782078E37811F0ECFB15902749284C086BA66B22
:203B9800401C086395F9208010F076FBA0B9244800F1100700698068B0420DD13868C068F1
:203BB80011F0DEFC022803D13868C06810F0FFFA3868C06810F03CFFBDF914000090CDF831
:203BD8000480216C2B88A06B08A204F067FD0EF03FFC0346616CA06B0EA204F05FFD284634
:203BF8000CF0F8FC16B0BDE8F081C04653656E736F72202D20416464723D30782530347893
:203C18002C2054656D703D25642C20525353493D256400C0257800C010250020DC1C002007
:203C3800200100202DE9F04FA44C8246E07894F8315094F83290BAF1000FADF1140D0146AB
:203C5800A1F101018FB218BF01214FF0000884F83F10464603964FF0F80B019622E0B14576
:203C78001ED0E06871036A46042311F03AFC009911F4403F03D00198401CC0B2019001F09B
:203C9800FF017C2918BF782909D1304606215A4610F08CFD0C2016FB004080F848B0E0780A
:203CB800761CF6B2B042DADC0199401E88425BD0002F04F1300600F0CA8040464FF4005B65
:203CD800019094F83F30E06813B9012184F83F106A466903042311F004FCBAF1000F05D06C
:203CF8000099E07811F4403F40F09980009800F0FF00702803D0284670210FF0EBFDE068CE
:203D18004FEA49316A46042311F0EBFB009800F0FF00FE2803D04846FE210FF0DBFD484688
:203D38000621FE2210F042FD4FEA8900FF22FE2184F83C9000EBC900A4F840B0AB0084F834
:203D58003D50801984F83E20183001700199029003EBC5008019A4F84410808BA4F8420041
:203D7800FFF79AFC102801D10020A4E0BAF1000F0CBF10215146BAF1000F07D0B4F8400027
:203D9800C0F50050814207DC01200390B4F84000C0F50050814201DD782100E07C21484676
:203DB8000FF098FD06F0E2FD054694F83F000621FC22401B84F83F00484610F0F7FC0298F6
:203DD800FC21017094F83210E0787F1B491994F83E500C23414491FBF0F24243891AC9B23C
:203DF80084F83210491C91FBF0F24243891A84F8311015FB0361898BBFB2102905D1691CA8
:203E180091FBF0F24243891ACDB294F83290DDF80480BAF1000F17D00398A8B117E06D1CB9
:203E380008F1010295FBF0F17F1E94F83F30A4F840B041431FFA82F8BFB2581E6D1A84F8D8
:203E58003F00EDB284F83D50002F7FF43AAF7C200EF0C6FE0546FF2D1CD17E200EF0C0FEBC
:203E78000546FF2D16D194F831500C2015FB0060807DFF280AD0E27894F832008018401E17
:203E980090FBF2F15143401AC5B203E028467E210FF020FD0C2084F8335015FB0060808B85
:203EB800E08694F83200FE210FF014FDB4F84000C0F5005000B205B0BDE8F08FAC2500202A
:203ED8002DE9F84F07469A4D9A4C28684030D0F89410267891F883B026B1D0F80C05804716
:203EF8002868403001680E6816B9D0F80C058047A1460120904C89F80000012FA77040F27E
:203F1800AF80DFF83882DFF838A2BF1E54D07F1E3CD07F1E00F0C0807F1E21D07F1E40F046
:203F3800B6802968096C096891F86D20628191F86E70002F06BFE070071CE7706868406826
:203F580056460178307810FB01F0784381004046416590F8581021F00F0141F0030156E0AC
:203F7800BBF1010F40F0AA802968D1F8D420096C09680020C98A6071C90934BF92F8251017
:203F980092F84E10617011F0A1F997E00026BBF1010F66710DD12968D1F8D40090F853009E
:203FB800D1F83C148847C07B022802D1304608F0C9FD0EF0EDFA81E062482F680668D7F8D1
:203FD800D40090F88300012824D09AF800008700F06B8047DAF804103C23401AB0FBF7F160
:203FF800B1FBF3F25A43891A227812FB03F0401A3C301FFA80FAF06B804707FB0A01404630
:20401800416590F8581021F00F0141F0020180F8581053E09AF800008700F06B8047DAF87D
:2040380004103C23401AB0FBF7F1B1FBF3F25A43891A227812FB03F0401A3C301FFA80FA44
:20405800F06B804707FB0A014046C0F8E41090F8E81021F00F0141F0020180F8E8102DE095
:20407800002029686071D1F8D400096C0968C98AC90934BF90F8251090F84E106170B7B927
:20409800C078A0B10229C4BF022060700FE02868D0F84C05804711E02868006C006890F8A3
:2040B8006910617190F86A0060700027A77100F00DFE2868006C0068002836D0224800782D
:2040D80098B92868403001680F682FB9D0F80C0580472868006C07687A68A178107800F031
:2040F800200020719078E07100E0A178032903D0022918BF062918D111F0B0FAA17802299D
:204118000CD01249097811B91149097831B1022189F8001052F06EFBBDE8F88F832189F898
:20413800001052F067FB0AF0C5FBBDE8F88FC04614010020C03D0020EC2A0020881E002079
:20415800A02A0020D4230020B43D0020BB3D0020BD3D00202DE9F04F0646984CF08994F879
:2041780033504FF0FF0A002742F2010BADF1240DC01D1FFA80F8E07808910AE028467821D6
:204198000FF0A8FBE0786D1C95FBF0F141436D1AEDB2B84228DD94F832007F1CA842BFB2B6
:2041B800F0D0E068690305AA042311F09AF9059800F0FF007828E5D004F13009FF2818BFFC
:2041D8007E2803D128467C210FF084FBA80084F8335000EBC5004844818BE186808B4044DF
:2041F8008345CBDD94F833A0BAF1FF0F08D14046FFF718FD804503DD607800B90520D9E0A1
:20421800607894F83370B0B9F588307AADF80650E18EB5888DF808006A4603233846ADF8C2
:20423800045005F03FFF9DF81000BDF80C50307494F83370B581E068E58E790305AA042313
:2042580011F04FF90598B84600F0FF0100F0FF007E2806D140467C210FF03CFB059901F01E
:20427800FF017C2940F0A380F0895A46C11D8FB2E9198A4240F39980F288337A11128DF80D
:20429800192063F39F01B3888DF818109A1003F0030106468DF81A20C0F3851200F03F03C7
:2042B80042EA81128DF81B20990072198DF81C10F31D1FFA82FA98B20D282DDBDDF82090E1
:2042D80031460022484611F07BF80246052106A811F076F89DF81C10334600F03F0641EA06
:2042F800A0114A46B0008DF81C1040F0020096268DF81D0029468DF81E6040460DF0AEFBD6
:204318000646514606AA0723404666700DF0A6FB304360704DD135E0089904F12400324626
:2043380008F020FF06A90A68301900F12409484609790260731D0171002204F1240099B2CC
:2043580011F03EF89DF81C10962300F03F068DF81E3041EAA011B0008DF81C103B4640F09E
:20437800020006AE49468DF81D003268B0790A60B288887140468A8004F1240229460DF0C7
:204398006DFB6070E18EED194FEA8806AAB2C919E18606EBC8010919A1F84C2048B140468C
:2043B80051460DF029F9607803E0052000E001206070C0B209B0BDE8F08FC046AC25002038
:2043D8002DE9F04F0546ADF1140D029111F046F9864C012D039000F0DF8020460068D0F81B
:2043F80038038047002800F0D3800DF03DF8002800F0CE8021464968DFF80C828969D8F861
:204418000C000F783C30002F40F0C280784C0068257880476168DFF8E0B1AF00401AB0FB6F
:20443800F7F6E168A0680027BA46894652464E4572EB0A0201DA884207D802463B465146B8
:204458009642994141DA114600E03B460A46921BBB41104619462A46EB1710F097FC0646C0
:204478006A4800680F46C18A00695346421864324FF00001B61A9F417042B94122DA5D483B
:204498000268394630460BF0BDF80F4606464FF000017042B94115DA10F0D7FA05462069D4
:2044B80011F00CF910B1206911F036FA284610F0E5FC2069314611F02BFA206911F024FA46
:2044D800002000E001205C4620705C46207800285ED146480068D0F8940000780027394670
:2044F8000BF0A4FC00B10127D946381C4DD13F480068D0F8D4003D4E90F88370706880694D
:204518000078002841D1D8F80C003C4C436C606902216A4698479DF80000002835D00298E7
:204538004FF0010A012821D0354ED8F80C20606996F9001011F1020F06D0926B96F9001093
:204558009047D8F80C2060692E4D95F9001011F1020F06D0926B95F900109047D8F80C2037
:2045780060696FF001012970317002E0D8F80C2060691E494968896981F800A0D1698847EC
:20459800012F04BF002088F80000002089F80000039852F02FF925E02068D0F89400007869
:2045B80001210BF043FC039852F024F9029806F053FA0FF051FFA8B960680C30C168097852
:2045D800022908D101680F782FB12068D0F84C05804760680C3001680F781FB9C168087812
:2045F8000228FCD005B0BDE8F08FC04614010020A02A0020641D0000BE3D0020402800208B
:20461800382C0020392C0020C8230020542800202DE9FF478D4D69896F7848081CD367B964
:204638002878012806D10BF0C9FCADF800000CF087FD01E00DF032FB6F78012F04D1E87886
:2046580080F001000FF038FFFF206870012105F10A0010F029FC69898808C0F098807C4C4B
:20467800207805F10A0A012840F08C80E078012840F08880606A94F83870E369860004F19D
:2046980038091B2F06EBC0061E4406F110061ED148465BA104220FF0E9FC28B3484659A16B
:2046B80004220FF0E3FCE8B1484657A104220FF0DDFCA8B1484655A104220FF0D7FC68B1D3
:2046D800484653A106220FF0D1FC00284FD1402F0BDD5B2FBCBF2037FFB206E0FD2704E0B2
:2046F800FC2702E0FB2700E0FA2796F805803946304607F01BF8012839D0E169606A0D3FD6
:204718001BD00E3F0FD0643F04D07D3F2CD0781E28D02CE0CF68A06A002F08BF88680AD0A0
:20473800C968E16119E0B8F1000F01D07079A8B1206AE0618068401E0FE0820002EBC002F9
:20475800521802F110010F681FB1896831B1884704E08968E161A06200206062002003F0DC
:2047780029F904E0002000E001200EF0ADF94846002105220AF056FA606904F13D01052213
:2047980010F0CDFE5046022110F08EFB6989A889C908024631D3ADF8000002218DF808104F
:2047B8002879A96C05F10A0400B3401E1AD0401E02D0401E12D01CE0BDF800000AF05CFBBA
:2047D80020B9BDF800000CF05FFD12E0A86B296CBDF8003010A203F061FF0AE068460EF0C1
:2047F800ABF906E0684606F02FFD02E010460CF0A7FC2046042110F057FB0090BDE8FF87D8
:204818001B5B41001B5B42001B5B43001B5B44001B0000000000C0464469736173736F6344
:20483800696174652053656E736F72204572726F72202D20416464723D307825303478200B
:204858006E6F7420666F756E6400C046DC1C002020010020FEB5071C00F0AF80F96B0029D2
:2048780000F0AB80B7F84000002800F0A6800E78002017F1300103D097F83810052902D04F
:20489800002800F09A80387A03280AD138460EF081FF4FF6FF71814200F08F8038800221C8
:2048B80039727B4C7B4D206BB61E56D0B61E38D0761E7FD0F61E7AD0361F74D0701F7CD18F
:2048D800B7F84000032878D1F86B42788178481E0A2807D8DFE800F01C1A18161412100E71
:2048F8000C0A08C035A314E036A312E038A310E03AA30EE03CA30CE03EA30AE040A308E034
:2049180042A306E044A304E046A302E048A300E049A300920191A86B296C49A203F0BEFE01
:20493800FEBDB7F84000012847D138460EF0C8F978B14289510B0CD34EF6FF711140418141
:2049580041F40051418141F288300EF059FB0FF09FFB206A401C2062FEBDB7F840000D28DA
:204978002BD138460EF0ACF938B142894FF6FF611140418141F400714181A86B296C3B88C3
:204998003DA203F08BFE0DF063FD0346696CA86B3EA203F083FE201D042110F090FAE06A8C
:2049B800401CE062FEBD38460BF044FEFEBD401C2063FEBD3846FEF7D5FFFEBD67656E65D5
:2049D80072696300636332363532726200C046C0636332363532723100C046C06363323626
:2049F8003432723100C046C0636331333532703400C046C0636331333532703200C046C0DC
:204A1800636331333532703100C046C0636331333532723100C046C063633133313272315C
:204A380000C046C0636332363430723200C046C063633133353000C063633133313000C002
:204A580053656E736F72202D204465766963653D25732C2044657669636546616D696C7934
:204A780049443D25692C204465766963655479706549443D256900C0436F6E666967527355
:204A980070202D203078253034782000257800C010250020DC1C00202DE9F04F834C8046A4
:204AB8002078ADF1140D012800F0F48098F8001098F8010098F802700843074300F0EA80D8
:204AD80004F59A7000212422082310F019FF012504F1640604F59A7284F84C513046294689
:204AF80010F00AFF4FF0000B04F14400A66098F8007040F804BBC0F800B05FB306F0DEFEC9
:204B18006B4807786570B80000EBC70630460EF09DFEE060002800F0BD80594632460AF051
:204B380081F8684610F03AFB4FF47A7001908FB15E46B146D4F80CA05E4948466A4606F015
:204B580001F809F101097F1E06EB0A0106F10C064860EFD198F8010030B352F0F2FA5648F6
:204B78000778A570F8000EF071FE2061002800F09180684610F0DEFA4FF4FA70ADF804009E
:204B98002069FA0059460AF04DF86FB15E46D4F810903046694604F0E1FF7F1E09EBC6011B
:204BB80006F101064860F2D198F80200002870D0454A04F18006E5702946304610F09CFE9C
:204BD800414A04F19C072946A661384610F094FEE7620DF093FA04F5AC7738460FF0F2FFB7
:204BF80084F859514FF4E130C4F8700184F86EB1324E84F85851324BC4F86861394684F8B9
:204C18006DB15846C4F864310DF002FC6061002840D004F13D01052210F081FC606920219A
:204C38005A4610F077FC257104F50F701BA140F285120EF051FB04F50F7010F075FE01463A
:204C580004F50F7009F0A8FA04F50F7618B1606910F05BFC1EE03046594640F2851209F0ED
:204C7800E1FF04F1D4005946042209F0DBFF154E0527304659460C2209F0D4FF0C367F1E5E
:204C9800F7D1114A04F1B8062946304610F034FE2663257005B0BDE8F08FC0461B5B324A20
:204CB8001B5B32301B5B3F32356C00C020010020281D0000451D0100291D0000F54B01004C
:204CD800251C01006C270020540200202DE9F84F7F4E00257F4C30688DF80050D0F8D4002E
:204CF800677890F883B010F02EFC4FF001094FF6FF7109FA07F28918014030686181D0F8BA
:204D1800B800DFF8D88107784FB3826B3AB342F21A0069469047704867790378CBB1C7B955
:204D38009DF80030ABB13068D0F8B800C06D80B1804707464046017857B17068406863893D
:204D58000078083010FB01F0B7FBF0F15818608167799DF80010608907FB01006081A07841
:204D7800002840F09D8030686178D43002685D4C92F88320012A6DD159480068C06B80478D
:204D980082460AF057FE074604F18C0398F8000019788200022007FB02AC60F303011970BE
:204DB8007168C4F888C0496894F87030097860F30303083189B202FB01C194F8E82084F804
:204DD800703065F3030284F8E8203068E166D430016891F88310012938D1D0F88801804787
:204DF800A0B34046E26E416891422FD294F88C1065F3030184F88C1001787068C4F8885074
:204E1800406894F8706000788B00083082B203FB02F026F00F0242F0030284F87020E06667
:204E380094F87400A4F882504FF4FA5340F0080084F8740094F87400E36769F3041084F8FE
:204E5800740007FB01F00EF0F9F92BE01C2007F0E3F827E0A4F8CA50006890F8312084F850
:204E7800CC2090F8240084F8CD0094F8CE0040F0200084F8CE0094F8CE0020F01F0040F08C
:204E9800020084F8CE0094F8CE0065F3871084F8CE0084F8CF5084F8D01084F8D15001E0A6
:204EB80002F06EFBBBF1020F10D10F481049007848B90E48007830B983220846027009F0A3
:204ED800F9FCBDE8F88F022208460270BDE8F88F14010020EC2A0020B43D0020A02A002023
:204EF800D4230020881E0020BB3D0020BD3D0020C03D00202DE9F04F834DE868416EADF1AC
:204F1800240D02A88847A846804C814DA178606902290FD170B100200CF094F8D8F80C00B5
:204F3800416860698847281D0068806901210170002060614FF00109002684F80290002869
:204F5800059630D10BF082FFD8B10BF07FFF012817D00BF07BFF052813D00BF077FF0C28E5
:204F78000FD00BF073FF0D280BD00BF06FFF0B2807D00BF06BFF0E2803D02868D0F84C0533
:204F98008047D8F80C0000F1200130B92868D0F84C058047D8F80C102031096804F1200028
:204FB80088475348E0630FF007F82968D1F8D40090F85300D1F83C14884707462868D0F898
:204FD800D40090F942000BF045FAB0F1FF3F05D0010828BF4FF6FF704649088038897968CF
:204FF8003B68454AB3464FF47A7AA2F8FEB0401EC2F800B1414303EB5100B0FBFAF1A2F833
:205018001C1192F8091169F3030182F8091192F8081169F3C71182F808112868D0F8C4032A
:2050380016468047F8B9B88934496F68BAFBF0F0C0B208707968BAFBF0F008702868D0F82A
:20505800D40090F85300022806D00EF05BF8032809D105215C2001E00221A820284A1170D2
:205078006968096808706369D8F80C70A168DFF894A063B358460BF0E5FF2A68D8F80C1021
:205098006069D2F8D420637892F853200F46934210D0496888476868806980F80090D8F87E
:2050B8000C00A1680768FC3604F1200332465046B84713E002215A468DE806003F6DFC36EE
:2050D8005B4602AA3146B847C8F8106007E0FC3632463E6804F120035046B0476061286898
:2050F800D0F8D40090F8530009B06070BDE8F08F54F100809E1F0020881E0020A02A002022
:20511800EC2A002068360020C823002040280020140100202DE9FE4F9B4615468946824685
:2051380010F09CFA7B490190F83908680CAF504508BF4868744C6FF0010828B1803010F053
:205158003DF8002840F0D0800EF0EEFE061C00F0D58004F1B40010F06DFA0023B4F98C009D
:20517800C6F80C90401C86F832306FF31F30A4F88C00C6F808B0B4F88C0030866348C6F8DB
:2051980010A097E80C0020210027B8461940104006F1180383E80300424686F8332006F1DD
:2051B800200383E88001E8683064287C86F8440028687063287986F83800A868F063686990
:2051D800B064A869F0642F7C27B9EF6817B1012086F844002F795FB999F80C0000F00F0055
:2051F800022805D1012086F83800D9F808007063484608274568002D18BF002F70D10088AE
:205218006FF30900B0F5305F18BF022506D196F83300082540F0100086F8330006F1180014
:2052380090E80C00414606F1180745EA0200194387E80300D4F8F800824507D194F8FC004B
:20525800410824BF00F0FE0084F8FC0030480768002F39D004F178000090D4F88010D4F860
:20527800842004F170052B463046B84710F1030F10D0B6F93010B4F98C20914207D0B4F990
:205298008C1001F6FF716FF31F31A4F88C1010F1020F1BD010F1030F18D096F83300B6F9A1
:2052B800308040F0800086F8330000278AF8A4702868864205D0F068007B00F00F000228DF
:2052D8001CD10AF0E5FD19E06FF00200B4F98C10804601F6FF716FF31F31A4F88C1005E04E
:2052F8007F1E2846FFB285E76FF0020894F8FC0040F0040084F8FC00C4F8F8A0019851F0A3
:2053180079FA4046BDE8FE8F182D0020FFEFFF9FEC1C0000E82E00202DE9F047DFF8B491B2
:205338000E46D9F808101F4615460446ADF1300DBEB1B5B130784FF0010808FA00F0014239
:205358000FD01046002110F091F9A560666010F085F9614D82462878022804DB504651F016
:2053780049FA0020B2E000286CD101F0EFFA5B495B4E086840F00200086008A8C9F80060B9
:205398000FF05CFF574E5849707808AA0A9005F580700DF0ADFA554905F59A7008AA0DF042
:2053B800A7FA08A80FF01AFF192108AB3078504A099005F138000DF06BF94E4A05F1540033
:2053D8001A2108AB0DF064F94B49002205F1900013460BF009FF4949002205F1B40013461E
:2053F8000BF002FF46480068C0F3814030B1454A05F12400042100230EF086FCB07801288C
:2054180002D10E2006F0BCFA05F178000FF098FD05F170000FF094FD002185F82010297563
:20543800E961072085F8C80185F82110364B1970A9600526E960354A2E610420AA610EF02D
:2054580085FD287805EB8001401CC1F8D840C0B22870504651F0CEF91FB968460FF0B6FD94
:205478006F4638684FF4FA76E6602060B86941466062388A6175E082F869E0627868002837
:205498000CBF40F6C410002120612148E06120622175A061F86800B1E061786900B1206254
:2054B800B86800B1A061782204F13000002109F0B9FB04F1480000210EF064FA154900223B
:2054D80004F1800013460BF08FFE20460CB0BDE8F087C046CC210840182D00200020094017
:2054F800110000E06C1C0000AD4B0100DDB40000050C0100F1F30000B14301006D480100F0
:20551800B44F0050E1130100B53D0020A5A700009F720000EF5501002DE9F04F754C064615
:20553800A068D0F80001807AADF15C0DC00008F071FA00280C9008BF1A2400F0D6804FF010
:20555800010AF07D8DF848A006F118018DF849000A680DF14A073A604A687A60097A39725B
:2055780010F07CF81590A068D0F888240DF1460181209047B07D00283DD004208DF803A013
:205598004FF000088DF80400B78A8DF80280A568ADF80070D5F894246946D22090474FF677
:2055B800FF79C34645461DE0C00043F800B0B18AC0188180DCF80020D42008A9904702E0B9
:2055D8004846ADF804008DF80780B08A8DF806803B68ADF80000D3F894246946D1209047E9
:2055F8006D1CADB204F108073A6802F580721068C088A84236DCB08A00279DF84920ADF85C
:2056180038000DF14A018DF83A700DF13B0007F0A9FDA068D0F894248DF844A00EA9D02054
:205638009047071C18D1B08A31461022ADF808000DF10A0007F096FD3069A7680790D7F83F
:20565800942402A9D3209047071C02D10C9838B104E00C9820B101E00C9808B10DF004FDED
:20567800FCB23FE0ADF80250B08AADF80000D2F888236946D12090470028A1D1BDF8040030
:2056980081459DD0ADF82000A068D0F8882408A9D420904704F1080718B10C9808B303468D
:2056B8001CE0386804F108073B6800F2944CD3F8000190F80AE00C9B404601E0401CC0B2A3
:2056D800864507DD03EBC0018988894502D0B28A8A42F3D186457FF467AF13B118460DF064
:2056F800C3FC1924159851F085F8204617B0BDE8F08FC0460C0100202DE9F04F6C4CE06852
:20571800416EADF12C0D02A88847644EDFF890B196F9000038B1594691F90000002818BF08
:20573800002040F0B8800FF099FF099061480078800806D27D20002107F0DCFB07900020D5
:2057580001E00020079003220590DFF858818DF818200146C8F8640108F5AE75688098F86E
:20577800680198F877318A466AF303004E4F88F8680198F8680140F0800088F86801012007
:20579800814669F3000388F8773198F8773160F3410388F8773198F8770161F3820088F84E
:2057B800770198F8770161F3C30088F8770198F8770161F3041088F8770198F8770162F37D
:2057D800461088F877013868D0F8282408F5BC71F4209047E068384AD0F850C0374B3348FB
:2057F8004FF080718DE803001068294602AAE0476080002848BFD14649D4594691F90000C3
:205818002F4B3A68401C087093F900002561401C187002F1AC03196896F900000F78401CF5
:20583800002F30700CBF51468021B4F84C001E684FF67F7508F5BA77054029430843A4F801
:205858004C003378397863F3C7113970D2F8D400C18CA4F85A10418D00F14405A4F85810B4
:20587800296804F14F06316068687060D2F8D400C18CA8F88E11418D00F14403A8F88C1197
:205898001A6808F5C27739460A6058684860099850F0B0FF48460BB0BDE8F08F462C002058
:2058B800452C0020881E00201401002020004300C8230020BC3D00205428002005260000F6
:2058D800442C00202DE9F04F8246ADF11C0D01F03DF85D4800780BF0B9FA5C4D0024012855
:2058F80007D90C3805D0401E0FD0401E012809D906E00FF007F9022804BF01210C1C06D0FF
:20591800296806E005211F2401E003210724284601604F4AD068C0F38150012804D11268C3
:205938000120120E904004430FF070FCDFF828B1DFF82081FF2240185B46401E471CC8F8C9
:2059580000007F1E03F8012BFBD1DAF80020002702F0FF03FE2B1CD0D4463B46012602F0C9
:20597800FF05FF2D0ED0A84205D3A94203D806FA05F52C4201D0022062E002F0FF022F4377
:205998000BF802305CF8042F5B1C02F0FF05FE2DE7D1092005F0F4FF3048C0F800A0384882
:2059B80001210DF0EFFF374D00264FF00109B04609FA06F0044214D1074207BF06F0FF01B0
:2059D80041F4C0411BF806005AF82010244804F0E5FDF0B24FF0FF310EF0BEFCC5F8008096
:2059F80001E0042028601B480068761C2D1D8642DED904A80FF0F2FB1A4C20781B4A05904C
:205A18001948102104AB0CF043FE68460FF016FC6068184902901648CDF80C806A460CF01B
:205A380067FF154951F80D0C20F4F85040F4005041F80D0C114AC1F8FF9F4046C2F8009074
:205A580007B0BDE8F08FC046B63D00206C2C0020A84F0050682C0020143B0020883D002033
:205A7800007FC767E41C0000C83B002019480100E43900208D2001000D3009402C000940F6
:205A9800E43B0020983700202DE9FE4F89469346804600210222684609F0C4F8684FB8795F
:205AB8008DF8008028B107F19E000FF06BFC0020B871644A02F11E00F96D067807F19E046E
:205AD80000255FEA080000F082800D3800F0828072384CD07B3801287CD9801E6FD0401EDD
:205AF80066D0401E61D0401E38D0B8F1300F71DBB8F13A0F05DBB8F1600F6BDDB8F1670FDE
:205B180068DA0322481E90FBF2F091FBF2F3081A401EC0B2461003FB02F0081A01280ED061
:205B380002284CD1A05D2946102220F00F008246A055684603F026FB4AEA00000BE0A05DAE
:205B58002946102200F00F008246A055684603F019FB4AEA0010A055F96D30E02EB910462F
:205B780021461122203007F0FDFA01202DE00322481E002990FBF2F0A1EB0000A0F10100C8
:205B9800C0B24FEA600325DD91FBF2F05043081A022805D001280BD1E05C40F0F00002E078
:205BB800E05C40F00F00E05402E00120F8650EE0C8B2012132220B460EF05AFD05E0C8B2DB
:205BD800012132220B460EF062FDF86502E020460FF0D8FB112614F8010B01A902220BF0FA
:205BF80087FED9F8000011A1098840190180D9F800006B1CD9B2401801A90EF05EF9EB1CD9
:205C1800761EDDB2E7D1B8F1000F0CD0D9F8080007A10F2207F0A6FA0120CBF80000F86D6B
:205C3800401CCBF80400BDE8FE8FC0462000C04620202020204348414E204D41534B00C005
:205C5800DC1C0020A81900202DE9FE4F89469346804600210222684608F0E4FF674EF07976
:205C78008DF8008028B106F18E000FF09FFA0020F071614A02F11E00716E077806F18E04ED
:205C980000254046FB280ADCFA287CDA002868D00D3878D00E3876D0643844D007E0FC387C
:205CB8006AD0401E61D0401E5BD0401E32D0B8F1300F68DBB8F13A0F05DBB8F1600F62DDC6
:205CD800B8F1670F5FDA0322481E90FBF2F0091A491EC8B2471040080CD2E05D29461022FD
:205CF80000F00F008246E055684603F04BFA4AEA00100BE0E05D2946102220F00F008246B6
:205D1800E055684603F03EFA4AEA0000E05596F8640032E02FB91046214610227D3007F075
:205D380021FA01202EE00322481E002990FBF2F0A1EB0000A0F10100C0B24FEA600322DDB5
:205D580091FBF2F05043081A022805D001280CD1E05C40F0F00002E0E05C40F00F00E05416
:205D780003E020460FF022FA0DE0C8B201212F220B460EF07DFC05E0C8B201212F220B46E2
:205D98000EF085FC7066102714F8010B01A902220BF0AEFDD9F8000010A1098840190180E6
:205DB800D9F800006B1CD9B2401801A90EF085F8EB1C7F1EDDB2E7D1B8F1000F0CD0D9F81B
:205DD800080007A1152207F0CDF90120CBF80000706E401CCBF80400BDE8FE8F2000C046CA
:205DF800202020202044454641554C54204E574B204B455900C046C0A8190020DC1C00200E
:205E1800F8B5694C2168054614310868407F002800F0C880D1F8C000B5F84220C08C9042AA
:205E380040F0C080D1F8581305F128008847002800F0B8802068406900264677216870312B
:205E5800486E90F8290028B16068816A0220884721687031086890F82B0018B16068816A7D
:205E780001208847287C400908D36068816A102088472068D0F82813802088476068C16BB2
:205E9800202088472168C868D1F8FC14103088476868226841785269007800EB0120C0F335
:205EB8000321517622685269C0F3003797762268526900F00F03C0F3031793772068D0F835
:205ED800D40080F82C7022680C32D2F8C81091F84F000F2806D093689B7F984202DD6B68D2
:205EF800DF780FB19068807F4873106880F83060D2F8C800417B0F290BD19068C07E02287F
:205F180050D1D2F8580180472068D0F86C018047F8BDD2F800252846904723680C33986827
:205F3800C07E022815D1D3F8F014186888472268D2F8D4001169467BD06831F81630D2F809
:205F5800F0244FF4707707FA06F1C91A904723680C33D3F8C8002A89D3F8A83190F82C10C1
:205F780002209847206800F11401D1F8C020D0F8D400527B90F82C0082420FD00868D1F8D8
:205F9800E81488472268D2F87C015169886050694169D2F8F024904721681431D1F81413D5
:205FB80010208847F8BDC0461401002001282DE9F84F40F0B880DFF89491D9F8D400012822
:205FD80040F0AE800220C9F8D4000EF027FC01200CF01EFF5FEA000805D00120C9F8D4005D
:205FF8000EF02AFCA1E00FF04BFB009011200FF00BFA00280CBF0025012510200FF004FA6F
:2060180008B145F002050F200FF0FEF908B145F00405474CA06A00680146012088470128F2
:2060380005D099F8D800012818BF002703D1002004F0BAF801270FF0E1F9DFF8F8A0400891
:206058000AD20026206A80680146504688478346BBF1040FF6D000E00126304600214FF0DD
:20607800FF3201F053FD012E0ED0BBF1010F05D1206A4068012102465046904734496C39CC
:20609800086840F003000860206840690146284688470B200FF0B8F9274E30B12068C06A45
:2060B8003146091D0246088890470A200FF0ACF928B12068C06A31460246088890471F4995
:2060D80003200126C9F8D4001D4B0E6000221A602068406B0146284688470128F8D1194C49
:2060F800206804200CF094FE0546174806602068012F02D1304604F057F80FF05BF908207F
:206118000CF086FE07460098C9F8D4600FF0F0FB0EF092FB57EA050018BF4FF0FF3804E021
:206138006FF0040801E06FF001084046BDE8F88FB8010010004003401A17000028200860B4
:20615800800104432C2009400C400940A8210020902208402DE9F04FDFF898910646A9F117
:20617800080000F108078068D0F80001807AADF12C0DC00007F04EFC0028089008BF1A25B6
:2061980000F0B4800FF06AFA00244FF0FF0B25460A9027E0ADF800608DF80240D2F88823A6
:2061B800D02069469047D8B99DF80C00012802D19DF80B1019B998B99DF8071081B100284A
:2061D80014BF082304230DF103005B1E00F801BBFBD105703868D0F894246946D02090477D
:2061F800641CE4B23A6802F580721068C07AA042D0DC4C462068D0F80001C0884FF6FF78BF
:20621800AA461DE0089901EBC0018A8896421CBF401CC0B261D1C1F800A0A1F804803A684E
:20623800D42004A9904702E07F1CBFB225E020682268D0F800016D1CEDB202F58072C088A7
:20625800A842D8BF55464BDDADF80060ADF80250D2F88823D120694690470028E7D1BDF865
:2062780004008045E3D0ADF810002068D0F8882404A9D420904790BB5746226802F5807206
:206298001068C088B84210DDADF80060ADF80270D2F88823D120694690470028C4D1BDF8C5
:2062B8001000BDF804108842BED12068D0F80001C088B842BBD1ADF81480ADF8168006A853
:2062D8005946082208F0AEFC2068D9F8003000F29447D3F80001837A5046834292DC192515
:2062F8000A9850F087FA08980CF0BEFE28460BB0BDE8F08F140100202DE9F047644E044600
:206318009246306894F83080D0F888240F469946ADF1300D0DF10E018B2090473068D0F847
:20633800882401A98A20904794F82500002840D1B8F1000F1AD1BDF80E104FF6FE70884291
:2063580006DCBDF80E10884240F09C8001A916E0B4F844009DF80E508DF8100000128DF8AB
:206378001100BDF80E008DF812501CE0B8F1020F0AD0B8F1030F40F0858004F1280104A800
:206398000EF092FE092512E0207CC00934BFB4F84200B4F844008DF8100000128DF81100C4
:2063B800208D8DF81200001205258DF81300002015E002280CBF05250925012818BF04F156
:2063D8001C0106D13068D0F8882407A98920904707A904A86A1E06F0C5FE94F826000DEB2E
:2063F8000501C8733068D0F898343A46294604A89847002846D1B8F1000F19D1BDF80E10EA
:206418004FF6FE70884205DCBDF80E10884239D101A915E0B4F844009DF80E508DF8240034
:2064380000128DF82500BDF80E008DF826501BE0B8F1020F09D0B8F1030F23D104F128016F
:2064580009A80EF031FE082212E0207CC00934BFB4F84200B4F844008DF8240000128DF8B4
:206478002500208D8DF82600001204228DF827003068D0F8A444CDF80090386809A953461B
:20649800A04708B1F32000E000200CB0BDE8F087140100202DE9F04F634C8346A4F10805B5
:2064B800A868D0F80001807AADF12C0DC00007F0B1FA08900FF0D2F80A90A86800F59162C5
:2064D800D0F8000100894FF6FF790026C846CA4636E006AF5946082238460DF01DFF78B9F5
:2064F8002068D0F81C153846884700283AD02068ADF80490D0F894246946D120904731E0BB
:20651800ADF81480ADF8168006A8FF21082208F089FB2068D0F8942404A9D4209047206873
:20653800ADF804A0D0F894246946D120904720682268D0F80001761CB6B202F591620089BB
:20655800B04208DC0A9850F055F9089808B10CF08BFD002064E02068D0F80001C07A012729
:20657800002531E02068D0F800012268C0886D1CEDB202F5916230E0ADF800608DF80250AC
:206598001268D02069469047A8B99DF80C00012810D19DF80B0068B90DF1020208200021DB
:2065B80012F8013FFF2B03D1401E01F10101F7D10829BCD0002720682268D0F800016D1C19
:2065D800EDB202F59162C07AA842D5DC002FAED12068D0F80001C0880025A842A7DDADF8C6
:2065F8000060ADF802501268D120694690470028B8D1BDF804008045B4D0ADF8100020684B
:20661800D0F8882404A9D420904700283FF461AF0A9850F0EFF8089808B10CF025FD192092
:206638000BB0BDE8F08FC046140100202DE9FF415F4C04F1700108680025884600280746E9
:2066580050D0D4F88400002851D1D4F8800000284FD0D4F8801038690969884203D197F839
:206678003300400931D2019502A8012101AA07F0B7FB00283BD0029911BB4E480668002E01
:2066980035D0D4F88000D4F8841008F108034246B047022807D0012829D10120009001993F
:2066B8002B46084605E001230093D4F88000D4F880100069B1F930102A4602F001FB16E018
:2066D80004F190000EF0E5FB11E0D4F88000C06840880028F9D0D4F88000C06840880128BC
:2066F800F3D006E004F5807002210EF0CDFF002D5BD060683969884251D1294603A80A46EB
:2067180007F06EFB58B1039848B1D4F8800030B9D4F8840018B908200CF0B6FA45E00820ED
:206738000EF0C2F897F8330004F58075C0F3001028B940460DF04CFDC4F8800004E04046C3
:206758000DF046FDC4F88400B8691B49C0430860B8694A6810434860F869C04341F8080C32
:20677800F86951F8042C104341F8040CF86804460DF0C8FB2088A0F6020040B141F21E019E
:20679800401A04D041F6E671401A012803D8012021460DF0DBFB4FF08041284603E004F522
:2067B80080704FF480610EF06FFF0090BDE8FF81182D0020F01C000010100440F8B50746BD
:2067D80061485F4C001DC26A0168B7F5C067C2F30722C4F8B070C1F38441C4F8B420C069DC
:2067F800C4F8B810C0F38120C4F8C80000F0A38094F8D0606EB9C4F8CC70D4F8B800C4F8F7
:20681800C000D4F8B460C4F8BC60D4F8C850C4F8C450D4F8CC00D4F8B450002854BF02236C
:206838006FF0010304F1C002116800EB4000C018431000EB937001EBA0011160D4F8C010CF
:20685800C4F8BC5000291CDD1E293DDDD4F8C40030B93429B4BF15391E21C4F8C01025E06E
:206878002A29BABFD4F8C0000B381E20C4F8C000D4F8BC003E28D4BF401C3F20C4F8BC00F7
:206898001FE0D4F8C400032812D011F10A0FA6BFD4F8C0000B300120C4F8C000D4F8BC00D8
:2068B8000028CCBF401E0020C4F8BC00032009E011F1140FA6BFD4F8C00015300120C4F8D3
:2068D800C0000020C4F8C4004FF08057D7F8A401B4F8BC101B4D40684FF47F4208230646B3
:2068F800009128463021B047D7F8A40101214FF40032112340680091064604212846B047EB
:20691800D7F8A401B4F8C01040684FF4F80212230646009104212846B047D7F8A401B4F8CE
